:100000000C942A000C94D60C0C94FD0C0C94240D2A
:100010000C945D0E0C94360E0C9447000C9456070D
:100020000C9447000C9447000C94A60D0C947D0D85
:100030000C9447000C945B0F0C9447000C94850FB4
:100040000C943F0B0C944F0D0C9447000C944700FC
:100050000C94470011241FBECFE5D8E0DEBFCDBF12
:1000600011E0A0E6B0E0E6E2F2E202C005900D92F7
:10007000AA3EB107D9F722E0AAEEB1E001C01D9275
:10008000A53EB207E1F70E949D030C9411110C9458
:1000900000000895CF939091F101911114C0813324
:1000A00021F481E0809360000AC0823319F4109239
:1000B000600005C0833319F483E08093600081E021
:1000C0008093F101FCC090916000943009F4F2C07B
:1000D000C82F911115C0E091F001E53088F4F0E0EF
:1000E000E551FE4F80830E94460A8091EA018F5FAE
:1000F0008093EA018091F0018F5F8093F00190C0BE
:10010000911119C08091F00185508630A0F4E091E2
:10011000EA01F0E0E551FE4FC0838C2F0E94460AB1
:100120008091EA018F5F8093EA018091F0018F5FF7
:100130008093F00175C0913009F072C06091F901AF
:10014000653058F58091F301811127C0862F90E02A
:10015000FC01E650FE4F20ED2C0F2083FC01EA52FB
:10016000FD4F258381E00E94730A8C2F0E94460A6E
:100170008FE39CE90197F1F700C000006091F9015D
:1001800081E00E94730A8AE20E94460A8091F90186
:100190008F5F8093F9011092F8018091F901853009
:1001A000B1F48091F301811112C081E08093F801D4
:1001B00060E00E94730A8091F80190E00E94860A34
:1001C0008091F7018F5F8093F7011092F9016091A0
:1001D000F9016530D8F48091F3018130B9F4E62F4C
:1001E000F0E0EA52FD4FC0830E94730A8C2F0E94F8
:1001F000460A8FE39CE90197F1F700C00000809167
:10020000F9018F5F8093F9011092F8018091F90153
:10021000853031F48091F301813011F48093F8013D
:100220008091F001853031F514C09091F501242FB3
:1002300030E0F901E551FE4F50816FE0969FC0011B
:100240001124805C9D4FFC01E20FF31F50834F5F30
:1002500001C040E0453048F381E00E94EE0981E7AB
:1002600090E00E94600A60E081E00E94730A1092B0
:10027000EA0125C08A3019F516C09091F501242FA6
:1002800030E0F901E551FE4F50816FE0969FC001CB
:100290001124805C9D4FFC01E20FF31F20ED250F20
:1002A00025834F5F01C040E0453038F381E0809303
:1002B000F40105C0943019F480538093F201CF917A
:1002C0000895CF93C82F81E00E94EE098091F90133
:1002D000853009F050C015C0822F90E0FC01EA5231
:1002E000FD4F458105965FE0C59FF0011124E05C5C
:1002F000FD4FE80FF91F8581481301C03F5F2F5F55
:1003000002C020E030E0253038F3353099F460E069
:1003100081E00E94730A80E890E00E94600A8FEFFB
:1003200093ED20E3815090402040E1F700C00000B1
:1003300081E02EC08091F6018F5F8093F60160E02E
:1003400081E00E94730A86E890E00E94600A5FEFF5
:1003500083ED90E3515080409040E1F700C00000F1
:1003600081E00E94EE098CE890E00E94600A109201
:10037000F8011092F9018091F601833041F481E097
:100380000E94EE098BE990E00E94600AFFCF80E0B6
:10039000CF910895CF93DF93EC01188281E00E9402
:1003A000EE098091F901853009F05DC01FC0822FF0
:1003B00090E0FC01EA52FD4F3081EFE06E9FA0011A
:1003C0001124405C5D4FFA01E80FF91F808138135A
:1003D00001C07F5F2F5F02C020E070E0253038F35E
:1003E000753059F0AF5FA8836F5F02C060E0A0E096
:1003F0008091F501681780F370E0753099F460E042
:1004000081E00E94730A80E890E00E94600A2FEF6A
:1004100089E698E1215080409040E1F700C000005B
:1004200081E02EC08091F6018F5F8093F60160E03D
:1004300081E00E94730A86E890E00E94600AEFEF74
:1004400029E688E1E15020408040E1F700C000004B
:1004500081E00E94EE098CE890E00E94600A109210
:10046000F8011092F9018091F601833041F481E0A6
:100470000E94EE098BE990E00E94600AFFCF80E0C5
:10048000DF91CF910895CF938091F401813009F0ED
:1004900084C022C02091F50130E08C2F86959FE02A
:1004A000929FF001939FF00D1124E05CFD4FE80F47
:1004B000F11D608144E1429FC001439F900D1124D2
:1004C0008C0F911D0E94A5088FE19EE40197F1F722
:1004D00000C00000CE5F01C0C0E0CA30D8F2C0E06A
:1004E00024C02091F50130E06C2F66958C2F90E0B0
:1004F0000A9674E1729FA001739F500D11247FE052
:10050000729FF001739FF00D1124E05CFD4FE60F28
:10051000F11D6581840F951F0E94A5088FE19EE45F
:100520000197F1F700C00000CE5FCA30D0F2C0E002
:100530000EC02091F5018C2F90E034E1239F800DB7
:10054000911D11240E94C3080E94460ACE5FCA3042
:1005500080F3CAE00FC02091F5018C2F90E034E1C8
:10056000239F800D911D11240E94C30890E00E94DA
:10057000860ACE5FC43178F31092F4016091F501E0
:100580006F5F6093F50187E690E00E94A508609197
:10059000F50187E690E00E94A508CF9108951F938A
:1005A000CF93DF93182F1092F9011092F80141C0F8
:1005B0008CE890E00E94600A60E081E00E94730A8B
:1005C000D0E02FC00E943809C82F8091F8018130F7
:1005D00011F0CF3FB9F3813031F16D2F81E00E94EE
:1005E000730A8D2F90E020ED2C0FFC01E650FE4F9A
:1005F0002083FC01EA52FD4F25838C2F0E94460A7E
:100600002FEF89E698E1215080409040E1F700C04B
:1006100000006D2F81E00E94730A8AE20E94460A60
:10062000DF5FD53078F281E08093F80185E0809338
:10063000F9018091F801882309F4BACF812F0E9433
:100640006101DF91CF911F910895EF92FF920F9377
:100650001F93CF93DF937C011092F9011092F80160
:100660004DC081E00E94EE0988EA90E00E94600A95
:1006700060E080E00E94730A2FEF83ED90E3215049
:1006800080409040E1F700C00000D0E02FC00E9401
:100690003809C82F8091F801813011F0CF3FB9F3AC
:1006A000813031F16D2F81E00E94730A0D2F10E02F
:1006B0000A521D4FF80180810E94460A80ED8C0F7E
:1006C000F80180838C2F0E94460AFFEF29E688E11B
:1006D000F15020408040E1F700C000006D2F81E024
:1006E0000E94730A8AE20E94460ADF5FD53078F2E0
:1006F00081E08093F80185E08093F9018091F80111
:10070000882309F4AECFC7010E94CA01DF91CF91BF
:100710001F910F91FF90EF9008956091F501615046
:100720006093F50187E690E00E94A5086091F501CD
:1007300087E690E00E94A5080895CF93DF931F926B
:10074000CDB7DEB780E00E94840E41E067E083E031
:100750000E94720B41E066E083E00E94720B41E070
:1007600062E083E00E94720B41E063E083E00E945C
:10077000720B41E064E083E00E94720B0E94210B47
:100780000E94150B0E94080A0E94E6080E944B0D69
:1007900060E875E280E090E00E940F0F8AE490E04C
:1007A0000E943E0F89E490E00E94430F87E690E0AC
:1007B0000E94C3088093F50141C00E9438099091BE
:1007C0006000923011F48F3FC1F3813311F091300A
:1007D00079F481E00E94EE0983EB90E00E94600AC8
:1007E00083EB90E00E94480F81E08093600024C07A
:1007F000823311F091110EC081E00E94EE0989EB65
:1008000090E00E94600A89EB90E00E94480F1092ED
:10081000600012C0833311F0933081F481E00E94B4
:10082000EE0982EC90E00E94600A82EC90E00E9467
:10083000480F83E080936000E12C6EC060E080E0B0
:100840000E94730A89EC90E00E94600A89EC90E0B3
:100850000E94480F60E081E00E94730A8BED90E0F7
:100860000E94600A88ED90E00E94480F60E083E0FB
:100870000E94730A8AEE90E00E94600A8CEF90E07A
:100880000E94480F9ACF81E00E94EE09F12C1CC013
:100890000F2D069510E0CE2CD12C24E12C9DC0010B
:1008A0002D9D900D11248F0D911D0E94C3089FE076
:1008B0009C9DF0019D9DF00D1124E05CFD4FE00F2B
:1008C000F11F8083F394F39429E02F1508F70F2E7E
:1008D000FAE0FF2EF02D1CC00F2D069510E0CE2C57
:1008E000D12C24E12C9DC0012D9D900D11248F0D44
:1008F000911D0E94C3089FE09C9DF0019D9DF00DFD
:100900001124E05CFD4FE00FF11F8583F394F39415
:1009100083E18F1508F7E3948091F501E81608F458
:10092000B2CF80916000813061F48EE091E00E944E
:10093000480F60E080E00E94730A81E790E00E9427
:10094000600A80916000811110C086E291E00E94EF
:10095000480F60E080E00E94730A87E291E00E9405
:10096000600A60E081E00E94730A80916000833039
:1009700081F487E391E00E94480F60E080E00E94EC
:10098000730A88E391E00E94600A60E081E00E94BF
:10099000730A8EE6898310E000E080916000813068
:1009A000B9F5011135C08093F301CE0101960E9483
:1009B00025038823D1F3898190E00E94860A9FEF66
:1009C00029E688E1915020408040E1F700C0000016
:1009D000898181110DC086E491E00E94600A9FEF39
:1009E00029E688E1915020408040E1F700C00000F6
:1009F0001092F8011092F30181E00E94EE098981C2
:100A00000E94CF028823D9F381E00E94EE0901E021
:100A100080916000811120C08091F4018130E1F467
:100A20008091F5018A3040F08CE491E00E94480FFB
:100A30008CE491E00E94600A81E691E00E94480FF8
:100A400081E00E94EE0981E691E00E94600A0E9426
:100A5000430281E08093600080916000833009F060
:100A6000BEC00E948D0381E791E00E94600A60E0B1
:100A700082E00E94730A84E791E00E94600A8091FC
:100A8000F50190E00E94860A9FEF23ED80E39150EC
:100A900020408040E1F700C0000081E080936000CA
:100AA0009EC060E080E00E94730A85E891E00E94A9
:100AB000600A69E080E00E94730A8DE891E00E947C
:100AC000600A60E081E00E94730A85E991E00E947B
:100AD000600A69E081E00E94730A8DE991E00E945A
:100AE000600A60E082E00E94730A85EA91E00E9459
:100AF000600A60E083E00E94730A81EB91E00E944B
:100B0000600A6DE083E00E94730A8EEB91E00E9420
:100B1000600A83E00E94310B4E977C010E94860898
:100B20009DE1E916F10420F084E60E94960803C0D6
:100B300080E00E9496082FEF89E698E121508040DE
:100B40009040E1F700C0000081E00E94EE0984E0DF
:100B50008093600037C0813029F467E083E00E9411
:100B60005E0C2DC0823029F466E083E00E945E0CAA
:100B700026C0833021F462E00E945E0C20C08430E5
:100B800029F463E083E00E945E0C19C0853029F4EB
:100B900060E088E70E94FC0A12C0863029F460E019
:100BA00080E00E94FC0A0BC0873049F481E00E947B
:100BB000EE090E94080A80E00E94AE0FFFCF8AE093
:100BC0008093F2018091F2018A3028F22FEF81EEBA
:100BD00094E0215080409040E1F700C000008091F7
:100BE0006000813019F0843009F0B2C08981882317
:100BF00009F457CFADC060E080E00E94730A85E839
:100C000091E00E94600A69E080E00E94730A8DE82A
:100C100091E00E94600A60E081E00E94730A85E929
:100C200091E00E94600A69E081E00E94730A8DE908
:100C300091E00E94600A60E082E00E94730A85EC05
:100C400091E00E94600A69E082E00E94730A8FECE2
:100C500091E00E94600A69E083E00E94730A89EDD6
:100C600091E00E94600A83E00E94310B4E977C0164
:100C700060E083E00E94730A80EE91E00E94600AC7
:100C8000C7010E94860A0E9486082DE1E216F1043F
:100C900020F084E60E94960803C080E00E94960837
:100CA0008FEF93ED20E3815090402040E1F700C0AA
:100CB000000081E00E94EE0984E0809360003BC068
:100CC000813029F467E083E00E945E0C31C08230FD
:100CD00029F466E083E00E945E0C2AC0833021F490
:100CE00062E00E945E0C24C0843029F463E083E05B
:100CF0000E945E0C1DC0853049F481E00E94EE091F
:100D00000E94080A80E00E94AE0FFFCF863049F4AF
:100D1000165F143608F014E6612F81E00E94CF0DB3
:100D200007C0873029F41A50612F81E00E94CF0D4F
:100D30008AE08093F2018091F2018A3008F28FEF0D
:100D400091EE24E0815090402040E1F700C0000087
:100D500080916000813019F0843009F01ECE8981C5
:100D6000811149CF1ACECF93DF939C01FB01DC01A7
:100D70001196CD91DC911297D383C2838C819D8192
:100D8000958384838C819D81DC0113967C936E9383
:100D900012977D836C8331872087F90180818F5F73
:100DA0008083DF91CF910895CF93DF93FC01A085DD
:100DB000B185C281D381848195819D838C83C481D7
:100DC000D581828193819B838A8311968D919C9199
:100DD0001297E817F90731F48481958112969C9354
:100DE0008E931197118610868C9181508C93DF9190
:100DF000CF9108950F920FB6F8940F921F9211247D
:100E00002F923F924F925F926F927F928F929F921A
:100E1000AF92BF92CF92DF92EF92FF920F931F9308
:100E20002F933F934F935F936F937F938F939F93F2
:100E3000AF93BF93CF93DF93EF93FF93A0912702DC
:100E4000B09128020DB60D920EB60D920E94780751
:100E500081110E943208A0912702B0912802CD9101
:100E6000CDBFDD91DEBFFF91EF91DF91CF91BF91BB
:100E7000AF919F918F917F916F915F914F913F9132
:100E80002F911F910F91FF90EF90DF90CF90BF9027
:100E9000AF909F908F907F906F905F904F903F901A
:100EA0002F901F900F900FBE0F9008950E94FA068A
:100EB0001895E0910A02F0910B028081811107C020
:100EC0008FEF9FEF90930102809300020895E091CD
:100ED0000A02F0910B020580F681E02D0680F78171
:100EE000E02D828193819093010280930002089506
:100EF000DF92EF92FF920F931F93CF93DF93809136
:100F0000FF01811197C0E0900602F09007028FEF79
:100F1000E81AF80AF0920702E0920602E114F104DE
:100F2000B9F480910A0290910B022091080230914D
:100F3000090230930B0220930A02909309028093D6
:100F40000802809102028F5F809302020E9459077B
:100F50008091000290910102E816F90628F4D12C44
:100F600053C0DD24D39401C0D12CE0910A02F0914A
:100F70000B028081811107C08FEF9FEF90930102D8
:100F80008093000241C0E0910A02F0910B020580BB
:100F9000F681E02DC681D7818A819B81E816F9060A
:100FA00028F490930102809300022EC08E010E5F00
:100FB0001F4FC8010E94D4068C899D89892B21F07E
:100FC000CE010C960E94D4068E8990910502981746
:100FD00010F48093050290E09C01220F331F220F32
:100FE000331F220F331F820F931FB801845F9D4F61
:100FF0000E94B3069E89E0912702F091280286891B
:10100000981708F0AECFB1CFE0912702F0912802F7
:10101000868990E0FC01EE0FFF1FEE0FFF1FEE0F21
:10102000FF1F8E0F9F1FFC01E45FFD4F8081823008
:1010300040F409C0809104028F5F80930402D12C98
:1010400002C0DD24D39480910302882311F0DD24B3
:10105000D3948D2DDF91CF911F910F91FF90EF9041
:10106000DF9008958091FF01882321F081E0809333
:1010700003020895109203022091050201C021503D
:10108000822F90E0FC01EE0FFF1FEE0FFF1FEE0F0F
:10109000FF1FE80FF91FE45FFD4F3081332379F321
:1010A000AC01440F551F440F551F440F551F480FE7
:1010B000591FDF010180F281E02D0280F381E02DD4
:1010C0001296FC93EE931197415F5D4FE417F5077D
:1010D00029F442815381FD0152834183FC01EE0FCB
:1010E000FF1FEE0FFF1FEE0FFF1F8E0F9F1FFC0154
:1010F000E45FFD4F0180F281E02D8681978190931E
:1011000028028093270220930502089541E063E0BE
:1011100081E00E94720B41E067E081E00E94720B67
:1011200041E064E081E00E94720B0895682F85E041
:101130000E945E0D41E067E081E00E94E80B40E024
:1011400064E081E00E94E80B08951F93CF93DF9342
:10115000D82FC62F192F10650E94970E812F0E943D
:10116000B90E8D2F0E94E50E8C2F0E94E50E0E9475
:10117000050F8FE39CE90197F1F700C00000DF91B4
:10118000CF911F9108950F931F93CF93DF931F92D9
:10119000CDB7DEB7082F192F106519820E94970E60
:1011A000812F0E94B90E802F0E94E50E0E94A80E8A
:1011B000812F0E94CF0ECE0101960E94F40E8981EC
:1011C0000F90DF91CF911F910F9108950F931F936F
:1011D000CF93DF93CDB7DEB728970FB6F894DEBF75
:1011E0000FBECDBF84E0898385E08A8386E08B8350
:1011F00087E08C831D8281E08E8382E08F8383E091
:10120000888710E012C0E1E0F0E0EC0FFD1FE10F75
:10121000F11D008140E0602F82E00E94720B41E0EE
:10122000602F82E00E94E80B1F5F143060F310E033
:1012300012C0E5E0F0E0EC0FFD1FE10FF11D0081B1
:1012400041E0602F80E00E94720B41E0602F80E05F
:101250000E94E80B1F5F143060F328960FB6F894D5
:10126000DEBF0FBECDBFDF91CF911F910F910895CB
:10127000AF92BF92CF92DF92EF92FF920F931F93A4
:10128000CF93DF93CDB7DEB728970FB6F894DEBFC4
:101290000FBECDBF84E0898385E08A8386E08B839F
:1012A00087E08C831D8281E08E8382E08F8383E0E0
:1012B0008887B12C3BC0CB2CD12CE5E0F0E0EC0FC3
:1012C000FD1FEC0DFD1DA08040E06A2D80E00E9416
:1012D000E80B10E023C0E12EF12CE1E0F0E0EC0F90
:1012E000FD1FEE0DFF1D0081602F82E00E94940C17
:1012F000811113C0C701880F991F880F991F8F593B
:101300009F4FFC01EC0DFD1D1081602F82E00E94BB
:10131000940C8823D1F3812F0DC01F5F1430D8F2B5
:1013200041E06A2D80E00E94E80BB39483E08B15C6
:1013300010F68FEF28960FB6F894DEBF0FBECDBF24
:10134000DF91CF911F910F91FF90EF90DF90CF90A1
:10135000BF90AF9008950F931F93CF93DF9300D06A
:1013600000D0CDB7DEB7082F84E0898385E08A837B
:1013700086E08B8387E08C8310E014C0402F50E020
:10138000012E02C0559547950A94E2F74170E1E0BD
:10139000F0E0EC0FFD1FE10FF11D608180E00E9485
:1013A000E80B1F5F143050F30F900F900F900F90C9
:1013B000DF91CF911F910F91089541E062E081E0AC
:1013C0000E94E80B8FE39FE10197F1F700C0000056
:1013D00040E062E081E00E94E80B0895CF93C82FBF
:1013E00040E061E081E00E94E80B40E060E081E0E5
:1013F0000E94E80B8C2F82958F700E94AB090E948F
:10140000DD098C2F0E94AB090E94DD09CF91089560
:101410002FEF83EF91E0215080409040E1F700C032
:10142000000041E061E081E00E94720B41E062E077
:1014300081E00E94720B41E060E081E00E94720B4B
:1014400060EF80E00E94C60C82E00E94AB090E941F
:10145000DD0982E00E94AB090E94DD0988E00E945C
:10146000AB090E94DD092FEF83EF91E0215080400E
:101470009040E1F700C000008EE00E94EE098FE08E
:101480000E94EE0981E00E94EE090895CF93C82FD3
:1014900041E061E081E00E94E80B40E060E081E033
:1014A0000E94E80B8C2F82958F700E94AB090E94DE
:1014B000DD098C2F0E94AB090E94DD09CF910895B0
:1014C0000F931F93CF938C01C0E003C00E94460A84
:1014D000CF5FF801EC0FF11D80818111F7CFCF9123
:1014E0001F910F910895813039F058F0823031F01A
:1014F000833031F060E005C0605C03C06C5E01C009
:101500006C5A862F80680E94EE0908951F93CF932E
:10151000DF9300D000D000D0CDB7DEB7AC01892B6F
:1015200099F587EE91E00E94600A5CC09A01ADECEB
:10153000BCEC0E9402119695879596958795969595
:1015400087959C01220F331F880F991F880F991FC1
:10155000880F991F820F931F9A01281B390BC9010D
:10156000E1E0F0E0EC0FFD1FE10FF11D805D8083F5
:101570009A010E940211AC015695479556954795E0
:10158000569547951F5F01C010E04115510571F652
:10159000412F50E0E1E0F0E0EC0FFD1FE40FF51FFC
:1015A000108280E017C0282F30E0A1E0B0E0AC0F3F
:1015B000BD1FA20FB31F9C91FA01E21BF30B3197E1
:1015C00021E030E02C0F3D1FE20FF31F20812C9310
:1015D00090838F5F912F9695891728F3CE010196FE
:1015E0000E94600A26960FB6F894DEBF0FBECDBFEC
:1015F000DF91CF911F910895CF93C62F853B08F0BF
:1016000084EB282F30E0A0EDB7E00E94021124EB1C
:1016100030E040E050E00E94E010C9018053984F54
:101620006C2F0E942B0ECF91089541E065E083E07E
:101630000E94720B0E94100E60E08AE50E94FC0A74
:10164000089587B1806487B987B18F7787B986B1EC
:10165000887F86B986B1876086B986B1806886B989
:10166000089597B1907E97B997B1892B87B986B1C4
:10167000806486B93499FECF84B195B108951F92E4
:101680000F920FB60F9211242F933F934F935F93B6
:101690006F937F938F939F93AF93BF93EF93FF933A
:1016A00084B195B190932C0280932B02E091290292
:1016B000F0912A02309729F080912B0290912C0210
:1016C0000995FF91EF91BF91AF919F918F917F917C
:1016D0006F915F914F913F912F910F900FBE0F909F
:1016E0001F901895683008F072C04130B9F581300C
:1016F00091F028F08230D9F0833029F12FC09AB3CD
:1017000021E030E0062E02C0220F331F0A94E2F7D8
:10171000292B2ABB23C097B321E030E0062E02C05C
:10172000220F331F0A94E2F7292B27BB17C094B36B
:1017300021E030E0062E02C0220F331F0A94E2F7A8
:10174000292B24BB0BC091B321E030E0062E02C050
:10175000220F331F0A94E2F7292B21BB411137C016
:10176000813091F028F08230D9F0833029F108954A
:101770002AB381E090E002C0880F991F6A95E2F7D2
:10178000809582238ABB089527B381E090E002C050
:10179000880F991F6A95E2F78095822387BB089589
:1017A00024B381E090E002C0880F991F6A95E2F7A8
:1017B0008095822384BB089521B381E090E002C02C
:1017C000880F991F6A95E2F78095822381BB08955F
:1017D000683008F072C04130B9F5813091F028F0DE
:1017E0008230D9F0833029F12FC09BB321E030E063
:1017F000062E02C0220F331F0A94E2F7292B2BBBBF
:1018000023C098B321E030E0062E02C0220F331F20
:101810000A94E2F7292B28BB17C095B321E030E0EA
:10182000062E02C0220F331F0A94E2F7292B25BB94
:101830000BC092B321E030E0062E02C0220F331F0E
:101840000A94E2F7292B22BB411137C0813091F075
:1018500028F08230D9F0833029F108952BB381E04C
:1018600090E002C0880F991F6A95E2F78095822365
:101870008BBB089528B381E090E002C0880F991FC8
:101880006A95E2F78095822388BB089525B381E0AD
:1018900090E002C0880F991F6A95E2F78095822335
:1018A00085BB089522B381E090E002C0880F991FA4
:1018B0006A95E2F78095822382BB0895683098F597
:1018C000813089F028F08230C9F0833011F1089519
:1018D0002BB381E090E002C0880F991F6A95E2F770
:1018E00082278BBB089528B381E090E002C0880F67
:1018F000991F6A95E2F7822788BB089525B381E096
:1019000090E002C0880F991F6A95E2F7822785BB95
:10191000089522B381E090E002C0880F991F6A9574
:10192000E2F7822782BB0895683060F5813079F054
:1019300028F08230A9F08330E1F026C089B390E02E
:1019400002C0959587956A95E2F78170089586B3F0
:1019500090E002C0959587956A95E2F781700895A9
:1019600083B390E002C0959587956A95E2F7817000
:10197000089580B390E002C0959587956A95E2F747
:10198000817008958FEF08958FEF0895813041F0B1
:1019900028F0823039F0833039F008956ABB089519
:1019A00067BB089564BB089561BB08951F920F92B1
:1019B0000FB60F9211242F933F934F935F936F9322
:1019C0007F938F939F93AF93BF93EF93FF93E09198
:1019D0002D02F0912E020995FF91EF91BF91AF91E9
:1019E0009F918F917F916F915F914F913F912F9137
:1019F0000F900FBE0F901F9018951F920F920FB669
:101A00000F9211242F933F934F935F936F937F9384
:101A10008F939F93AF93BF93EF93FF93E0912F0228
:101A2000F09130020995FF91EF91BF91AF919F9195
:101A30008F917F916F915F914F913F912F910F9077
:101A40000FBE0F901F9018951F920F920FB60F9216
:101A500011242F933F934F935F936F937F938F93B3
:101A60009F93AF93BF93EF93FF93E0913102F09177
:101A700032020995FF91EF91BF91AF919F918F91A4
:101A80007F916F915F914F913F912F910F900FBE7A
:101A90000F901F9018958FB780688FBF08951F9281
:101AA0000F920FB60F9211248F9381E0809333022F
:101AB0008F910F900FBE0F901F90189593B7987F3E
:101AC000892B83BF83B7886083BF83B7806483BF5C
:101AD00083B7806283BF83B78F7E83BF70E080E06F
:101AE00090E00E94E70F23E333E343E250E40E94D7
:101AF00073100E94B60F6CBF08951F920F920FB61D
:101B00000F9211242F933F934F935F936F937F9383
:101B10008F939F93AF93BF93EF93FF93E091340222
:101B2000F0913502309709F00995FF91EF91BF913F
:101B3000AF919F918F917F916F915F914F913F9165
:101B40002F910F900FBE0F901F9018951F920F921C
:101B50000FB60F9211242F933F934F935F936F9380
:101B60007F938F939F93AF93BF93EF93FF93E091F6
:101B70003602F0913702309709F00995FF91EF9105
:101B8000BF91AF919F918F917F916F915F914F9195
:101B90003F912F910F900FBE0F901F9018959EB5FB
:101BA000987F92609EBD9FB591609FBD9FB59260EA
:101BB0009FBD9EB598609EBD9EB59F7E9EBD8823AD
:101BC00019F08130B9F008958FB580688FBD8FB559
:101BD0008F7B8FBD70E080E090E00E94E70F24E1F2
:101BE0003EEA43E251E40E9473100E94B60F7BBDAF
:101BF0006ABD08958FB580628FBD8FB58F7E8FBD12
:101C000070E080E090E00E94E70F24E13EEA43E2CA
:101C100051E40E9473100E94B60F79BD68BD08950B
:101C20008EB5887F82608EBD8FB58E7F8FBD8FB55C
:101C300082608FBD8EB588608EBD8EB580618EBD91
:101C40008FB580688FBD8FB58F7B8FBD80E49CE999
:101C500097BD86BD0895662319F0613021F008957F
:101C60009BBD8ABD089599BD88BD08951F920F92AE
:101C70000FB60F9211242F933F934F935F936F935F
:101C80007F938F939F93AF93BF93EF93FF93E091D5
:101C90003802F09139020995FF91EF91BF91AF9110
:101CA0009F918F917F916F915F914F913F912F9174
:101CB0000F900FBE0F901F9018951F920F920FB6A6
:101CC0000F9211242F933F934F935F936F937F93C2
:101CD0008F939F93AF93BF93EF93FF93E0913A025B
:101CE000F0913B020995FF91EF91BF91AF919F91C8
:101CF0008F917F916F915F914F913F912F910F90B5
:101D00000FBE0F901F90189598E490B991B19E7FE7
:101D100091B991B19D7F91B9882311F0880F82B953
:101D200086B7806486BF86B7846086BF089586B70D
:101D3000806286BF86B7806886BF06B607FEFDCF85
:101D400081B1887F883011F480E0089581E00895A2
:101D500086B7806286BF86B7806886BF06B607FEF4
:101D6000FDCF81B1887F803111F480E0089582E059
:101D70000895880F83B983B18E7F83B986B78F7D2D
:101D800086BF86B7806886BF06B607FEFDCF81B1E5
:101D9000887F883111F480E0089583E00895880FEA
:101DA00083B983B1816083B986B78F7D86BF86B7DB
:101DB000806886BF06B607FEFDCF81B1887F80347C
:101DC00011F480E0089584E0089583B986B78068AF
:101DD00086BF06B607FEFDCF81B1887F883211F439
:101DE00080E0089585E00895FC0196B7906896BF5D
:101DF00006B607FEFDCF91B1987F903521F483B1EF
:101E0000808380E0089586E0089586B7806186BF6C
:101E100086B7806886BF06B604FCFDCF0895DC0156
:101E2000CB01880F991FAA1FBB1F880F991FAA1FDC
:101E3000BB1F9C01AD01220F331F441F551F220FF2
:101E4000331F441F551F60E074E284EF90E00E944E
:101E5000E0102150310930BD29B98AB180618AB9B9
:101E60008AB188608AB98AB180688AB98AB1806487
:101E70008AB986E880BD08958CB9089590933F0291
:101E800080933E02089590933D0280933C02089512
:101E9000CF93DF93EC0109C021960E943C0F8FE1A4
:101EA0009EE40197F1F700C0000088818111F4CF12
:101EB000DF91CF9108951F920F920FB60F921124C8
:101EC0002F933F934F935F936F937F938F939F9342
:101ED000AF93BF93EF93FF93E0913E02F0913F02E7
:101EE000309711F08CB10995FF91EF91BF91AF91AF
:101EF0009F918F917F916F915F914F913F912F9122
:101F00000F900FBE0F901F9018951F920F920FB653
:101F10000F9211242F933F934F935F936F937F936F
:101F20008F939F93AF93BF93EF93FF93E0913C0206
:101F3000F0913D02309709F00995FF91EF91BF9123
:101F4000AF919F918F917F916F915F914F913F9151
:101F50002F910F900FBE0F901F90189591B598601C
:101F600091BD91B5987F892B81BD08950E94521033
:101F700088F09F5798F0B92F9927B751B0F0E1F04A
:101F8000660F771F881F991F1AF0BA95C9F714C0FA
:101F9000B13091F00E946C10B1E008950C946C1077
:101FA000672F782F8827B85F39F0B93FCCF3869533
:101FB00077956795B395D9F73EF490958095709590
:101FC00061957F4F8F4F9F4F0895E89409C097FB0D
:101FD0003EF490958095709561957F4F8F4F9F4F00
:101FE0009923A9F0F92F96E9BB279395F695879544
:101FF00077956795B795F111F8CFFAF4BB0F11F407
:1020000060FF1BC06F5F7F4F8F4F9F4F16C08823AD
:1020100011F096E911C0772321F09EE8872F762FE3
:1020200005C0662371F096E8862F70E060E02AF024
:102030009A95660F771F881FDAF7880F9695879510
:1020400097F9089597F99F6780E870E060E0089538
:102050009FEF80EC089500240A94161617061806C0
:102060000906089500240A9412161306140605069C
:102070000895092E0394000C11F4882352F0BB0F2D
:1020800040F4BF2B11F460FF04C06F5F7F4F8F4F90
:102090009F4F089557FD9058440F551F59F05F3FCB
:1020A00071F04795880F97FB991F61F09F3F79F07A
:1020B00087950895121613061406551FF2CF4695FC
:1020C000F1DF08C0161617061806991FF1CF86957E
:1020D0007105610508940895E894BB276627772762
:1020E000CB0197F908950E9486100C9439100E9434
:1020F0002B1038F00E94321020F0952311F00C9430
:1021000022100C94281011240C946D100E944A1077
:1021100070F3959FC1F3950F50E0551F629FF0013A
:10212000729FBB27F00DB11D639FAA27F00DB11D53
:10213000AA1F649F6627B00DA11D661F829F2227DC
:10214000B00DA11D621F739FB00DA11D621F839F63
:10215000A00D611D221F749F3327A00D611D231F39
:10216000849F600D211D822F762F6A2F11249F5787
:1021700050409AF0F1F088234AF0EE0FFF1FBB1F8A
:10218000661F771F881F91505040A9F79E3F510549
:1021900080F00C9422100C946D105F3FE4F3983E95
:1021A000D4F3869577956795B795F795E7959F5FF3
:1021B000C1F7FE2B880F911D9695879597F9089585
:1021C000A1E21A2EAA1BBB1BFD010DC0AA1FBB1F3B
:1021D000EE1FFF1FA217B307E407F50720F0A21BAD
:1021E000B30BE40BF50B661F771F881F991F1A941A
:1021F00069F760957095809590959B01AC01BD0144
:10220000CF010895A29FB001B39FC001A39F700D9D
:10221000811D1124911DB29F700D811D1124911DEE
:062220000895F894FFCFC1
:10222600023738392F3435362A3132332D23303DB3
:102236002B456E7465722050617373776F726400FC
:1022460052696768740057726F6E6700456E7465F1
:10225600722070617373776F726400526573657470
:102266002053797374656D00456E746572207573BD
:102276006572006C6F67696E005265676973746595
:10228600720044656C657465004C6F67696E3A2030
:10229600507265737320310020202052656720201C
:1022A6003A20507265737320320044656C6574651C
:1022B60020203A205072657373203300202020526C
:1022C600656720203A205072657373203300486595
:1022D6007920456E74657220796F7572207061730E
:1022E60073776F72640020456E746572207573652E
:1022F60072206E616D65002044656C657465206DA5
:10230600656D6265720041444D494E004E6F204D29
:102316006178696D756D20446174612062617365D1
:1023260000656E7465722075736572206E616D65E9
:10233600004F4B006E756D626572206F6620757377
:102346006572733A004C414D50313A31004C414D63
:1023560050323A32004C414D50333A33004C414DE5
:1023660050343A3400446F6F72204F50454E3A3520
:1023760000446F6F7220436C6F73653A3600526586
:1023860073743A370044696D6D65722B3A360044B2
:10239600696D6D65722D3A3700526573743A350072
:0A23A60054454D503D20003000006A
:00000001FF
